:100000000C9463000C948B000C948B000C948B006C
:100010000C948B000C948B000C948B000C948B0034
:100020000C948B000C948B000C948B000C948B0024
:100030000C948B000C948B000C948B000C948B0014
:100040000C947C0C0C948B000C9445080C941F08A9
:100050000C948B000C948B000C948B000C948B00F4
:100060000C948B000C948B000000000024002700EF
:100070002A0000000000250028002B0000000000DE
:1000800023002600290004040404040404040202DA
:100090000202020203030303030301020408102007
:1000A0004080010204081020010204081020000012
:1000B0000008000201000003040700000000000027
:1000C0000000270E1B0E11241FBECFEFD8E0DEBFAD
:1000D000CDBF23E0A4EDB2E001C01D92A23BB20768
:1000E000E1F712E0A0E0B1E0ECE2F2E202C005903C
:1000F0000D92A43DB107D9F710E0C2E6D0E004C0EC
:100100002197FE010E94FE0EC136D107C9F70E9459
:10011000780D0C9409110C940000CF92DF92EF92AD
:10012000FF920F931F93CF93DF936C017A018B01A2
:10013000C0E0D0E0CE15DF0581F0D8016D918D01D2
:10014000D601ED91FC910190F081E02DC601099559
:10015000892B11F02196EECF7E01C701DF91CF915F
:100160001F910F91FF90EF90DF90CF900895FC01C9
:10017000538D448D252F30E0842F90E0821B930B0C
:10018000541710F0CF96089501970895FC01918DB2
:10019000828D981761F0828DDF01A80FB11D5D96E9
:1001A0008C91928D9F5F9F73928F90E008958FEF57
:1001B0009FEF0895FC01918D828D981731F0828D0B
:1001C000E80FF11D858D90E008958FEF9FEF089562
:1001D000FC01918D228D892F90E0805C9F4F821BC6
:1001E00091098F73992708958EED92E00E94E8009F
:1001F00021E0892B09F420E0822F0895FC01848DF1
:10020000DF01A80FB11DA35ABF4F2C91848D90E040
:1002100001968F739927848FA689B7892C93A0891B
:10022000B1898C91837080648C93938D848D9813A5
:1002300006C00288F389E02D80818F7D8083089538
:10024000EF92FF920F931F93CF93DF93EC0181E026
:10025000888F9B8D8C8D981305C0E889F9898081E2
:1002600085FD26C0F62E0B8D10E00F5F1F4F0F731C
:100270001127E02E8C8DE8120CC00FB607FCFACFC8
:10028000E889F989808185FFF5CFCE010E94FE00C3
:10029000F1CF8B8DFE01E80FF11DE35AFF4FF08285
:1002A0009FB7F8940B8FEA89FB89808180620AC02E
:1002B0009FB7F894EE89FF896083E889F989808186
:1002C0008370806480839FBF81E090E0DF91CF9155
:1002D0001F910F91FF90EF900895CF93DF93EC0162
:1002E000888D8823C9F0EA89FB89808185FD05C056
:1002F000A889B9898C9186FD0FC00FB607FCF5CF90
:10030000808185FFF2CFA889B9898C9185FFEDCFD7
:10031000CE010E94FE00E7CFDF91CF91089580E0EB
:1003200090E0892B29F00E94F40081110C940000C8
:10033000089580E090E00895CF93DF93EC0160E0B2
:100340008E810E94360B61E08E810E94360B60E048
:100350008E810E94360B8BE891E00197F1F7DF91D7
:10036000CF910895CF93DF93382F292FE0E0F0E06D
:10037000CAE0D0E0009731F0BE010E94B40ECB017C
:100380003196F8CFE330F10519F4632F722F14C0C2
:10039000E901E230F10541F03197A1F460E070E04D
:1003A0008EED92E00E94FB0960E070E08EED92E03D
:1003B0000E94FB096D2F7C2F8EED92E0DF91CF9193
:1003C0000C94FB09DF91CF91089567E371E08EED06
:1003D00092E00E94060D80910C0190910D010E9407
:1003E000B20165E372E08EED92E00E94060D80910D
:1003F0000A0190910B010E94B20169E371E08EED58
:1004000092E00E94060D80910801909109010E94DE
:10041000B2016BE371E08EED92E00E94060D8091D7
:100420000601909107010E94B2016AE671E08EED2B
:1004300092E00E94060D80910401909105010E94B6
:10044000B2010E94F3096DE371E08DE893E00E9430
:10045000060D68EB7BE080E090E00E94420C8CE2AD
:1004600093E09093DD028093DC0208950F931F9335
:10047000CF93DF9360E086E00E94360B01E010E04E
:1004800080910E01882309F47AC082E00E940D0B4E
:10049000892B99F461E082E00E94360B0E94F309F7
:1004A00062ED71E08DE893E00E94060D61E085E069
:1004B0000E94360BC1E0D0E078C084E00E940D0BB2
:1004C000892B99F461E084E00E94360B0E94F309C5
:1004D00061E172E08DE893E00E94060D61E08DE03D
:1004E0000E94360BC2E0D0E060C083E00E940D0B9A
:1004F000892B09F058C061E083E00E94360B03307D
:10050000110519F1C3E0D0E0BE018EED92E00E942A
:10051000FB090E94F30966E471E08DE893E00E9414
:10052000060D81E00E947E0A67E571E08DE893E0A8
:100530000E94060D60E08DE00E94360B60E085E0D1
:100540000E94360BC330D10591F463E070E08EED6C
:1005500092E00E94FB0910920E010E94F30968E6E6
:1005600071E08DE893E00E94060DC3E0D0E06EE1FB
:1005700070E080E090E00E94420C8E0181CF64EF39
:1005800071E080E090E00E94420C61E086E00E9411
:10059000360B64EF71E080E090E0DF91CF911F9126
:1005A0000F910C94420CC0E0D0E00C171D0709F02D
:1005B000ABCFDDCFCF93DF9300D000D000D0CDB74D
:1005C000DEB70E94F30981E00E947E0A6CE671E0CA
:1005D0008DE893E00E94060D68EE73E080E090E005
:1005E0000E94420C80E00E947E0A6DE771E08DE877
:1005F00093E00E94060D8EED92E00E94E800892BA8
:10060000D1F3CE0101960E94CC0ACE0101960E9440
:100610008F0ACE0101960E94E70C80918B03909186
:100620008C03892B41F36EE871E0809187039091F0
:1006300088030E94F910892BF1F684E597E09093E6
:10064000DD028093DC0226960FB6F894DEBF0FBE63
:10065000CDBFDF91CF910895CF93DF9300D000D02D
:1006600000D0CDB7DEB78EED92E00E94E800892B76
:1006700081F1CE0101960E94CC0ACE0101960E9422
:100680008F0ACE0101960E94E70C80918B03909116
:100690008C03892BF1F06EE871E0809187039091D3
:1006A00088030E94F910892BA1F40E94F30960E9E4
:1006B00071E08DE893E00E94060D68EE73E080E043
:1006C00090E00E94420C86E392E09093DD028093DA
:1006D000DC0226960FB6F894DEBF0FBECDBFDF91C9
:1006E000CF9108950F93CF93DF93CDB7DEB72C97BB
:1006F0000FB6F894DEBF0FBECDBF66EA71E081E8A9
:1007000093E00E94C60C809106019091070190939E
:10071000DB028093DA0285E090E09093D902809327
:10072000D80262EB71E08BE793E00E94C60C6BE7A6
:1007300073E0CE0107960E94EC0C61E873E0CE01F5
:1007400001960E94EC0C6091D8027091D90201E0F0
:100750009E01295F3F4FAE014F5F5F4F8091DA02EC
:100760009091DB020E94080D90930701809306018F
:10077000CE0101960E94E70CCE0107960E94E70C7D
:1007800064EF71E080E090E00E94420C83E00E9400
:100790000D0B892B51F485EE91E09093DD0280934F
:1007A000DC0261E083E00E94360B2C960FB6F894D1
:1007B000DEBF0FBECDBFDF91CF910F9108950F9394
:1007C000CF93DF93CDB7DEB72C970FB6F894DEBF8B
:1007D0000FBECDBF65EB71E081E893E00E94C60CCF
:1007E00080910801909109019093DB028093DA02D5
:1007F0008AE090E09093D9028093D80267EC71E090
:100800008BE793E00E94C60C6BE773E0CE0107967E
:100810000E94EC0C61E873E0CE0101960E94EC0CA2
:100820006091D8027091D90201E09E01295F3F4F8B
:10083000AE014F5F5F4F8091DA029091DB020E9420
:10084000080D9093090180930801CE0101960E9442
:10085000E70CCE0107960E94E70C64EF71E080E0A0
:1008600090E00E94420C83E00E940D0B892B51F412
:1008700082E793E09093DD028093DC0261E083E005
:100880000E94360B2C960FB6F894DEBF0FBECDBF7C
:10089000DF91CF910F910895EF92FF920F93CF9335
:1008A000DF93CDB7DEB72C970FB6F894DEBF0FBE3F
:1008B000CDBF8091D702807C09F45BC061E083E00A
:1008C0000E94360B6AEF70E080E090E00E94420CDC
:1008D00032E0E32EF12C83E00E940D0B019709F02A
:1008E00048C06AEC71E081E893E00E94C60C8091F8
:1008F0000C0190910D019093DB028093DA02F0924B
:10090000D902E092D8026BED71E08BE793E00E9490
:10091000C60C6BE773E0CE0107960E94EC0C61E811
:1009200073E0CE0101960E94EC0C6091D8027091A8
:10093000D90201E09E01295F3F4FAE014F5F5F4F3B
:100940008091DA029091DB020E94080D90930D01D4
:1009500080930C01CE0101960E94E70CCE01079610
:100960000E94E70C64E670E080E090E00E94420C98
:10097000B2CF8091D702807309F463C061E083E055
:100980000E94360B6AEF70E080E090E00E94420C1B
:1009900080910C0190910D019093030180930201CD
:1009A00022E0E22EF12C83E00E940D0B019709F06A
:1009B00048C069EE71E081E893E00E94C60C809126
:1009C0000201909103019093DB028093DA02F0928E
:1009D000D902E092D8026AEF71E08BE793E00E94BF
:1009E000C60C6BE773E0CE0107960E94EC0C61E841
:1009F00073E0CE0101960E94EC0C6091D8027091D8
:100A0000D90201E09E01295F3F4FAE014F5F5F4F6A
:100A10008091DA029091DB020E94080D909303010D
:100A200080930201CE0101960E94E70CCE01079649
:100A30000E94E70C64E670E080E090E00E94420CC7
:100A4000B2CF8091D7028C7009F45BC061E083E083
:100A50000E94360B6AEF70E080E090E00E94420C4A
:100A600092E0E92EF12C83E00E940D0B019709F032
:100A700048C068E072E081E893E00E94C60C809173
:100A80000A0190910B019093DB028093DA02F092BD
:100A9000D902E092D80268E172E08BE793E00E940D
:100AA000C60C6BE773E0CE0107960E94EC0C61E880
:100AB00073E0CE0101960E94EC0C6091D802709117
:100AC000D90201E09E01295F3F4FAE014F5F5F4FAA
:100AD0008091DA029091DB020E94080D90930B0145
:100AE00080930A01CE0101960E94E70CCE01079681
:100AF0000E94E70C64E670E080E090E00E94420C07
:100B0000B2CF8091D702807C09F463C061E083E0BA
:100B10000E94360B6AEF70E080E090E00E94420C89
:100B200080910A0190910B01909301018093000143
:100B300082E0E82EF12C83E00E940D0B019709F072
:100B400048C066E272E081E893E00E94C60C8091A2
:100B50000001909101019093DB028093DA02F09200
:100B6000D902E092D80267E372E08BE793E00E943B
:100B7000C60C6BE773E0CE0107960E94EC0C61E8AF
:100B800073E0CE0101960E94EC0C6091D802709146
:100B9000D90201E09E01295F3F4FAE014F5F5F4FD9
:100BA0008091DA029091DB020E94080D909301017E
:100BB00080930001CE0101960E94E70CCE010796BA
:100BC0000E94E70C64E670E080E090E00E94420C36
:100BD000B2CF8FED93E09093DD028093DC022C96F0
:100BE0000FB6F894DEBF0FBECDBFDF91CF910F914E
:100BF000FF90EF9008950F93CF93DF93CDB7DEB7BB
:100C00002C970FB6F894DEBF0FBECDBF65E472E03F
:100C100081E893E00E94C60C0E94F30981E893E00A
:100C20000E94040B81E090E09093D9028093D80257
:100C300067E672E08BE793E00E94C60C8091D602D3
:100C400090E09093DB028093DA026BE773E0CE01D1
:100C500007960E94EC0C61E873E0CE0101960E94B9
:100C6000EC0C6091D8027091D90200E09E01295FDE
:100C70003F4FAE014F5F5F4F8091DA029091DB02F0
:100C80000E94080D9093DB028093DA02CE01019658
:100C90000E94E70CCE0107960E94E70C8091DA02D1
:100CA0009091DB02892B99F41092D60281E00E9488
:100CB0007E0A67E572E08DE893E00E94060D1092CF
:100CC000D50264E670E080E090E00E94420C8091E2
:100CD000DA029091DB020197A1F481E08093D602C1
:100CE0000E947E0A68E672E08DE893E00E94060D9D
:100CF00080EC8093D50264E670E080E090E00E9492
:100D0000420C83E00E940D0B892B69F49091D7026D
:100D10008091D502892B8093D7028CE494E0909344
:100D2000DD028093DC026AEF70E080E090E00E94D8
:100D3000420C2C960FB6F894DEBF0FBECDBFDF91EC
:100D4000CF910F9108950F93CF93DF93CDB7DEB777
:100D50002C970FB6F894DEBF0FBECDBF64E772E0EC
:100D600081E893E00E94C60C0E94F30981E893E0B9
:100D70000E94040B81E090E09093D9028093D80206
:100D800067E672E08BE793E00E94C60C8091D40284
:100D900090E09093DB028093DA026BE773E0CE0180
:100DA00007960E94EC0C61E873E0CE0101960E9468
:100DB000EC0C6091D8027091D90200E09E01295F8D
:100DC0003F4FAE014F5F5F4F8091DA029091DB029F
:100DD0000E94080D9093DB028093DA02CE01019607
:100DE0000E94E70CCE0107960E94E70C8091DA0280
:100DF0009091DB02892B99F41092D40281E00E9439
:100E00007E0A67E572E08DE893E00E94060D10927D
:100E1000D50264E670E080E090E00E94420C809190
:100E2000DA029091DB020197A1F481E08093D40271
:100E30000E947E0A65E872E08DE893E00E94060D4C
:100E400080E38093D50264E670E080E090E00E9449
:100E5000420C83E00E940D0B892BE1F49091D702A4
:100E60008091D502892B8093D702809104019091C3
:100E70000501019719F48CE494E002C08BEF95E032
:100E80009093DD028093DC026AEF70E080E090E0F6
:100E90000E94420C2C960FB6F894DEBF0FBECDBF59
:100EA000DF91CF910F910895EF92FF920F93CF931F
:100EB000DF93CDB7DEB72C970FB6F894DEBF0FBE29
:100EC000CDBF61E972E081E893E00E94C60C0E9408
:100ED000F30981E893E00E94040B80910401909152
:100EE00005019093DB028093DA0282E0E82EF12C78
:100EF000F092D902E092D80267E672E08BE793E0C5
:100F00000E94C60C6BE773E0CE0107960E94EC0CC2
:100F100061E873E0CE0101960E94EC0C6091D8026A
:100F20007091D90200E09E01295F3F4FAE014F5FF3
:100F30005F4F8091DA029091DB020E94080D90933E
:100F4000050180930401CE0101960E94E70CCE01B9
:100F500007960E94E70C809104019091050184306E
:100F6000910559F481E00E947E0A63EA72E08DE8FF
:100F700093E00E94060D8FE00DC08230910569F468
:100F800081E00E947E0A63EB72E08DE893E00E94AC
:100F9000060D83E08093D70211C0892B59F481E0BC
:100FA0000E947E0A63EC72E08DE893E00E94060DD9
:100FB0008CE0F0CFF0920501E092040164E670E06D
:100FC00080E090E00E94420C83E00E940D0B892B90
:100FD000A9F48091040190910501029719F48BEF17
:100FE00095E002C083EA96E09093DD028093DC02F4
:100FF0006AEF70E080E090E00E94420C2C960FB601
:10100000F894DEBF0FBECDBFDF91CF910F91FF905F
:10101000EF9008956115710579F0FB0101900020B2
:10102000E9F73197AF01461B570BDC01ED91FC91BD
:101030000280F381E02D099480E090E008951F92F2
:101040000F920FB60F9211242F933F934F935F93FC
:101050006F937F938F939F93AF93BF93EF93FF9380
:101060008EED92E00E94FE00FF91EF91BF91AF9153
:101070009F918F917F916F915F914F913F912F91B0
:101080000F900FBE0F901F9018951F920F920FB6E2
:101090000F9211242F938F939F93EF93FF93E091DF
:1010A000EE02F091EF028081E091F402F091F502FE
:1010B00082FD12C090818091F7028F5F8F73209123
:1010C000F802821751F0E091F702F0E0E252FD4F92
:1010D000958F8093F70201C08081FF91EF919F91DE
:1010E0008F912F910F900FBE0F901F901895CF9258
:1010F000DF92EF92FF920F931F93CF93DF936C01D8
:101100007C0187E0E80EF11CC0E0D0E0062F10E083
:10111000B8010C2E02C0759567950A94E2F76170CC
:10112000F70181917F010E94360B2196C430D105D1
:1011300079F7C601DF91CF911F910F91FF90EF904A
:10114000DF90CF900C949C01CF92DF92EF92FF92B0
:101150000F931F93CF93DF93EC01F62E642F8C81B6
:101160000E94360B8D818F3F19F060E00E94360B94
:101170008F850F2D10E084FF25C06E0187E0C80E1B
:10118000D11CE12CF12CB8010E2C02C0759567958D
:101190000A94E2F76170F60181916F010E94360BAB
:1011A000FFEFEF1AFF0A88E0E816F10461F7CE01BD
:1011B000DF91CF911F910F91FF90EF90DF90CF9033
:1011C0000C949C01B80184E0759567958A95E1F7C8
:1011D000CE010E9477086F2DCE01DF91CF911F9134
:1011E0000F91FF90EF90DF90CF900C94770841E043
:1011F0000E94A40881E090E00895833081F028F4F3
:10120000813099F08230A1F008958730A9F08830BC
:10121000B9F08430D1F4809180008F7D03C080913B
:1012200080008F7780938000089584B58F7702C007
:1012300084B58F7D84BD08958091B0008F7703C001
:101240008091B0008F7D8093B00008953FB7F894EF
:101250008091AA039091AB03A091AC03B091AD0330
:1012600026B5A89B05C02F3F19F00196A11DB11D01
:101270003FBFBA2FA92F982F8827820F911DA11D3C
:10128000B11DBC01CD0142E0660F771F881F991F79
:101290004A95D1F708952FB7F8946091A6037091FD
:1012A000A7038091A8039091A9032FBF08950895E3
:1012B0000F931F930E944B096093E6027093E7021D
:1012C0008093E8029093E9028EED92E00E94C600BE
:1012D00097FF1FC00E944B090091E6021091E702A0
:1012E0002091E8023091E902DC01CB01801B910BD7
:1012F000A20BB30B0091E2021091E3022091E402F1
:101300003091E50280179107A207B307E8F28FEF4B
:101310009FEF1F910F91089540E0682F8DE893E0B3
:101320000C94A4080E94EB100F931F93CF93DF93AC
:10133000EC0188819981009729F02A813B81261749
:10134000370788F48B016F5F7F4F0E94251000974D
:1013500061F0998388831B830A832C813D81232B31
:1013600011F4FC01108281E001C080E0DF91CF9197
:101370001F910F910895EF92FF920F931F93CF93B8
:10138000DF93EC017B018A01BA010E949409288154
:10139000398181110DC02115310519F0C9010E9453
:1013A0009C0F198218821D821C821B821A8206C021
:1013B0001D830C83B701C9010E940211CE01DF9188
:1013C000CF911F910F91FF90EF900895FC01118232
:1013D0001082138212821582148240E050E067E688
:1013E00072E00C94BB0981E00E948C098BE39FE1C1
:1013F0000197F1F708954F925F926F927F928F92CB
:101400009F92AF92BF92CF92DF92EF92FF920F9393
:101410001F93CF93DF93CDB7DEB7A1970FB6F894A4
:10142000DEBF0FBECDBF8C016B01770FEE08FF084A
:10143000F7FE2FC0DC01ED91FC910190F081E02DD1
:101440006DE209955C0122273327A9012C193D097A
:101450004E095F0919A2FE01B1967F019AE0492E5B
:10146000512C612C712CCA01B901A30192010E9477
:10147000C80E605DD7016E937D01211531054105D0
:10148000510589F7BD01C8010E940A088A0D9B1DFC
:101490001EC0A701960119A2FE01B1967F018AE044
:1014A000882E912CA12CB12CCA01B901A50194015F
:1014B0000E94C80E605DD7016E937D012115310534
:1014C0004105510589F7BD01C8010E940A08A1968E
:1014D0000FB6F894DEBF0FBECDBFDF91CF911F9145
:1014E0000F91FF90EF90DF90CF90BF90AF909F90C3
:1014F0008F907F906F905F904F900895843008F0A8
:1015000083E09091A003891710F08FEF890FE82FE7
:10151000F0E0E357FC4F848980680C948C09CF93EA
:10152000DF93EC018091870390918803009739F055
:101530006881798161157105C9F40E949C0F8881C9
:10154000998190938803809387038A819B819093EC
:101550008A03809389038C819D8190938C0380936F
:101560008B03198218821B821A8211C04091890351
:1015700050918A032C813D8142175307F0F20E945B
:1015800002118C819D8190938C0380938B031D822B
:101590001C82DF91CF910895EF92FF920F931F93DA
:1015A000CF93DF9300D0CDB7DEB78C010E94E60960
:1015B0000E94580997FD1EC089831A82F801E480B1
:1015C000F580FFEFEF1AFF0AB701C8010E949409E6
:1015D000882371F3F8012081318184819581BE01D6
:1015E0006F5F7F4F820F931F0E940211F801F582F7
:1015F000E482DECFC8010F900F90DF91CF911F9151
:101600000F91FF90EF900895FC0144815581608116
:1016100071818DE893E00C948D00CF93DF93282F98
:1016200030E0F901E255FF4F8491F901E656FF4F92
:10163000D491F901EA57FF4FC491CC2391F0811165
:101640000E94FD08EC2FF0E0EE0FFF1FE458FF4F63
:10165000A591B491EC91ED2381E090E021F480E03C
:1016600002C080E090E0DF91CF9108951F93CF9367
:10167000DF93282F30E0F901E255FF4F8491F90103
:10168000E656FF4FD491F901EA57FF4FC491CC239E
:10169000C1F0162F81110E94FD08EC2FF0E0EE0F33
:1016A000FF1FEE58FF4FA591B4919FB7F894111109
:1016B00004C08C91D095D82302C0EC91DE2BDC9332
:1016C0009FBFDF91CF911F910895CF93DF9390E05B
:1016D000FC01E656FF4F2491FC01EA57FF4F84912D
:1016E000882361F190E0880F991FFC01E859FF4FB2
:1016F000C591D491FC01EE58FF4FA591B4916111B1
:1017000009C09FB7F8948881209582238883EC9143
:101710002E230BC0623061F49FB7F8948881322F7A
:10172000309583238883EC912E2B2C939FBF06C08A
:101730008FB7F894E8812E2B28838FBFDF91CF914C
:101740000895CF93DF93823028F090919C039860A6
:1017500090939C038093A0031092A10380E4809354
:10176000A20380E18093A30380E58093A40361E05A
:10177000809191030E94650B809192038F3F19F035
:1017800061E00E94650B61E0809193030E94650B0C
:10179000CDE8D3E09E012D58334080919C0384FD19
:1017A00003C084E090E002C088E090E02196281712
:1017B00039072CF461E08E810E94650BEBCF8BE33F
:1017C0009DE00197F1F760E0809191030E94360B54
:1017D00060E0809193030E94360B809192038F3FCB
:1017E00019F060E00E94360B80919C0384FD20C0BC
:1017F00063E08DE893E00E947708CBE4D6E4CE0165
:101800000197F1F763E08DE893E00E947708219754
:10181000F1F763E08DE893E00E94770883E592E0BA
:101820000197F1F762E08DE893E00E94770815C018
:1018300080620E948C098BE496E40197F1F7809115
:101840009C0380620E948C0983E592E00197F1F786
:1018500080919C0380620E948C0980919C0380622D
:101860000E948C0984E080939D038CE00E948C0987
:101870000E94F30982E080939E0386E0DF91CF917E
:101880000C948C098F929F92AF92BF92CF92DF926D
:10189000EF92FF926B017C010E9426094B015C01D3
:1018A000C114D104E104F104F1F00E942609DC0125
:1018B000CB0188199909AA09BB09883E9340A10563
:1018C000B10570F321E0C21AD108E108F10888EEF1
:1018D000880E83E0981EA11CB11CC114D104E10440
:1018E000F10419F7DDCFFF90EF90DF90CF90BF901C
:1018F000AF909F908F9008951F920F920FB60F9206
:1019000011242F933F938F939F93AF93BF93809115
:10191000A6039091A703A091A803B091A9033091C9
:10192000A50323E0230F2D3720F40196A11DB11D3F
:1019300005C026E8230F0296A11DB11D2093A50323
:101940008093A6039093A703A093A803B093A90341
:101950008091AA039091AB03A091AC03B091AD0329
:101960000196A11DB11D8093AA039093AB03A09390
:10197000AC03B093AD03BF91AF919F918F913F9115
:101980002F910F900FBE0F901F901895CF93DF935C
:10199000EC016115710559F0FB0101900020E9F798
:1019A0003197AF01461B570B0E94BB090CC08881C1
:1019B0009981009711F00E949C0F198218821D8254
:1019C0001C821B821A82CE01DF91CF910895FC0107
:1019D000808191810C949C0FFB01DC0111961C927B
:1019E0001E9213961C921E92129715961C921E928E
:1019F00014978617970749F0608171816115710509
:101A000021F0448155810C94BB0908950C940A0877
:101A10006F927F928F929F92AF92BF92CF92DF92FE
:101A2000EF92FF920F93CF93DF93EC017B014A017A
:101A3000390182E00E940D0B5C0184E00E940D0BD5
:101A40006C01002311F10E94F309C4010E94040BF0
:101A500081E00E947E0ABE018DE893E00E94FB09AE
:101A600066E672E08DE893E00E94060DC3010E94D5
:101A7000040B64E672E08DE893E00E94060D64E6D4
:101A800070E080E090E00E94420CAB2871F40E946C
:101A90004B090E944B090E944B09CE0DDF1D64E6E5
:101AA00070E080E090E00E94420CCD2891F40E940A
:101AB0004B090E944B090E944B09CE19DF09D7FF41
:101AC00002C0C0E0D0E064E670E080E090E00E94F8
:101AD000420CCE01DF91CF910F91FF90EF90DF90FC
:101AE000CF90BF90AF909F908F907F906F90089510
:101AF000789484B5826084BD84B5816084BD85B5E9
:101B0000826085BD85B5816085BD80916E008160F4
:101B100080936E001092810080918100826080939A
:101B2000810080918100816080938100809180009C
:101B30008160809380008091B10084608093B100C7
:101B40008091B00081608093B00080917A008460C1
:101B500080937A0080917A00826080937A008091ED
:101B60007A00816080937A0080917A008068809307
:101B70007A001092C10082E00E94A10BE091EE0277
:101B8000F091EF0282E08083E091EA02F091EB02B3
:101B90001082E091EC02F091ED028FEC80831092C4
:101BA000F602E091F202F091F30286E08083E09188
:101BB000F002F091F102808180618083E091F00277
:101BC000F091F102808188608083E091F002F091D1
:101BD000F102808180688083E091F002F091F1024F
:101BE00080818F7D80838EED92E00E946D0162E0A6
:101BF00083E00E94650B62E084E00E94650B62E076
:101C000082E00E94650B61E086E00E94650B61E066
:101C100085E00E94650B61E08DE00E94650B8AED16
:101C200092E09093DD028093DC02E091DC02F0917F
:101C3000DD020995FACF8BE793E00E94E70C81E87B
:101C400093E00E94E70C87E893E00C94E70CEEED3C
:101C5000F2E01382128288EE93E0A0E0B0E0848389
:101C60009583A683B7838DE191E09183808385EC92
:101C700090E09587848784EC90E09787868780EC56
:101C800090E0918B808B81EC90E0938B828B82EC47
:101C900090E0958B848B86EC90E0978B868B118EF1
:101CA000128E138E148EEDE8F3E0138212828FE20F
:101CB00091E09183808389E084838FEF858387E03F
:101CC000868388E087838CE080878AE081878BE049
:101CD00082871386148615861686178681E00E94F1
:101CE000A10B87E893E00E94E60981E893E00E9457
:101CF000E6098BE793E00C94E6092F923F924F920E
:101D00005F926F927F928F929F92AF92BF92CF928B
:101D1000DF92EF92FF920F931F93CF93DF93CDB794
:101D2000DEB7CA1BDB0B0FB6F894DEBF0FBECDBF0C
:101D300009942A88398848885F846E847D848C84DD
:101D40009B84AA84B984C884DF80EE80FD800C81E6
:101D50001B81AA81B981CE0FD11D0FB6F894DEBFC9
:101D60000FBECDBFED01089597FB072E16F400942A
:101D700007D077FD09D00E94EA0E07FC05D03EF49B
:101D8000909581959F4F0895709561957F4F089527
:101D9000A1E21A2EAA1BBB1BFD010DC0AA1FBB1F6F
:101DA000EE1FFF1FA217B307E407F50720F0A21BE1
:101DB000B30BE40BF50B661F771F881F991F1A944E
:101DC00069F760957095809590959B01AC01BD0178
:101DD000CF010895AA1BBB1B51E107C0AA1FBB1F5F
:101DE000A617B70710F0A61BB70B881F991F5A95A7
:101DF000A9F780959095BC01CD010895EE0FFF1FC6
:101E00000590F491E02D09940F931F93CF93DF93E6
:101E10008230910510F482E090E0E091B003F091FF
:101E2000B10320E030E0A0E0B0E0309719F140814C
:101E300051810281138148175907C8F0841795070B
:101E400069F4109731F012960C93129713961C9325
:101E500027C00093B0031093B10322C021153105B0
:101E600019F04217530718F49A01BD01EF01DF0181
:101E7000F801DBCF21153105F9F0281B390B24308F
:101E8000310580F48A819B816115710521F0FB0188
:101E90009383828304C09093B1038093B003FE01C7
:101EA000329644C0FE01E20FF31F819391932250BA
:101EB0003109398328833AC02091AE033091AF03B2
:101EC000232B41F420911101309112013093AF0383
:101ED0002093AE0320910F0130911001211531059F
:101EE00041F42DB73EB74091130150911401241BCA
:101EF000350BE091AE03F091AF03E217F307A0F4C6
:101F00002E1B3F0B2817390778F0AC014E5F5F4F4F
:101F10002417350748F04E0F5F1F5093AF034093CF
:101F2000AE038193919302C0E0E0F0E0CF01DF9136
:101F3000CF911F910F910895CF93DF93009709F4EC
:101F400081C0FC01329713821282A091B003B0913C
:101F5000B103109781F420813181820F931F20916A
:101F6000AE033091AF032817390751F5F093AF0353
:101F7000E093AE0367C0ED0120E030E0CE17DF074D
:101F800040F44A815B819E0141155105F1F0EA015F
:101F9000F5CFD383C28340815181840F951FC81729
:101FA000D90759F488819981840F951F02969183EE
:101FB00080838A819B81938382832115310529F453
:101FC000F093B103E093B0033DC0E901FB83EA83E2
:101FD00049915991C40FD51FEC17FD0761F4808119
:101FE0009181840F951F0296E901998388838281EC
:101FF00093819B838A83E0E0F0E012968D919C911F
:102000001397009719F0FD01DC01F7CF8D919C919A
:1020100011979D012E5F3F4F820F931F2091AE03BA
:102020003091AF032817390769F4309729F41092DB
:10203000B1031092B00302C013821282B093AF03B7
:10204000A093AE03DF91CF910895A0E0B0E0EBE262
:10205000F0E10C94810EEC01009721F4CB010E9479
:10206000040FB4C0FC01E60FF71F9C012250310998
:10207000E217F30708F4A8C0D9010D911C9111973C
:1020800006171707B0F00530110508F49BC0C8010A
:1020900004978617970708F495C002501109061B8C
:1020A000170B019311936D937C93CF010E949C0FAA
:1020B00089C05B01A01AB10A4C01800E911EA0914B
:1020C000B003B091B103612C712CE12CF12C10976D
:1020D00009F446C08D919C911197A815B905B1F5E9
:1020E0006C0142E0C40ED11CCA14DB0478F14C012F
:1020F0008A189B08640142E0C40ED11C1296BC9061
:1021000012971396AC91B5E0CB16D10440F0B28291
:10211000A38391828082D9016D937C9309C00E5F65
:102120001F4F800F911FF90191838083EB2DFA2FB0
:10213000E114F10431F0D7011396FC93EE9312975A
:1021400041C0F093B103E093B0033CC06816790638
:1021500008F43C017D0112960D90BC91A02DB7CFE3
:102160008091AE039091AF0388169906E1F466164C
:102170007706C8F480910F0190911001009741F407
:102180008DB79EB74091130150911401841B950B9C
:10219000E817F907C8F4F093AF03E093AE03F90131
:1021A000718360830FC0CB010E94040F7C010097F4
:1021B00059F0A801BE010E94F010CE010E949C0FB0
:1021C000C70104C0CE0102C080E090E0CDB7DEB709
:1021D000EEE00C949D0E81E090E0F8940C940911CF
:1021E000FB01DC0102C001900D9241505040D8F734
:1021F0000895FB01DC018D91019080190110D9F344
:10220000990B0895FB01DC0101900D920020E1F78C
:10221000089510E0C2E6D0E004C0FE010E94FE0E68
:0C2220002196C336D107C9F7F894FFCF10
:10222C003200280002003200F401320028000100C4
:10223C0000B2038000040002000000000020018DA9
:10224C0000B7006D01E800C600DA0000000000F7DE
:10225C00088D0099015709630070006600456E7681
:10226C0069616E646F002020202050726573736961
:10227C006F6E65202020003C2D466C657820202058
:10228C0020204578742D3E0046696D0020454D4157
:10229C00204645532D526F77696E67200020202011
:1022AC00436F6E656374616E646F2E2E2E00610039
:1022BC00496E696369616E646F20657374696D75CD
:1022CC006C6163616F004672657175656E636961FF
:1022DC003A00487A004C617267757261206465201F
:1022EC0050756C736F3A006D7300436F7272656E4C
:1022FC007465457874656E73616F006D4120284379
:10230C0048205B312C325D2900436F7272656E740C
:10231C00652041757820457874006D41202843482C
:10232C00205B352C365D2900436F7272656E7465C7
:10233C0020466C6578616F006D4120284348205B16
:10234C00332C345D2900436F7272656E74652041C5
:10235C007578466C6578006D4120284348205B37C2
:10236C002C385D2900466C65782E632F20417578DA
:10237C00696C6961723F004E616F20202020202023
:10238C00202020202020200053696D2C2043482041
:10239C00372F38004578742E632F20417578696C7F
:1023AC006961723F0053696D2C20434820352F36EC
:1023BC000053656C2E4D6F76696D656E746F287366
:1023CC00293A00457874656E73616F2B666C65787D
:1023DC00616F00457874656E73616F20202020203A
:1023EC00202000202020202020202020666C6578D2
:0423FC00616F00000D
:00000001FF
